:020000040000FA
:100000008802001071010000790100007B010000EE
:100010007D0100007F010000810100000000000060
:10002000000000000000000000000000830100004C
:100030008501000000000000870100008901000028
:100040008B010000930300008B0100008B01000076
:100050008B0100008B0100008B0100008B01000070
:100060008B0100008B0100008B0100008B01000060
:100070008B0100008B0100008B0100008B01000050
:100080008B0100008B0100008B0100008B01000040
:100090008B0100008B0100008B0100008B01000030
:1000A0008B0100008B0100008B0100008B01000020
:1000B0008B0100008B0100008B0100008B01000010
:1000C0008B0100008B0100008B01000000F002F8A2
:1000D00000F03FF80AA090E8000C82448344AAF1A3
:1000E0000107DA4501D100F034F8AFF2090EBAE8A1
:1000F0000F0013F0010F18BFFB1A43F0010318475C
:100100006C0F00008C0F0000103A24BF78C878C133
:10011000FAD8520724BF30C830C144BF04680C600D
:10012000704700000023002400250026103A28BF55
:1001300078C1FBD8520728BF30C148BF0B60704759
:10014000642900F08985002070471FB51FBD10B5D8
:1001500010BD00F047FF1146FFF7F7FF00F09EFAD1
:1001600000F0C6F803B4FFF7F2FF03BC00F064FF31
:100170000948804709480047FEE7FEE7FEE7FEE73B
:10018000FEE7FEE7FEE7FEE7FEE7FEE70448054977
:10019000034A054B70470000950A0000CD0000009F
:1001A00088000010880200108800001053EA020C3A
:1001B00000F069802DE9F04B4FF00006002B1FBFC7
:1001C000B3FA83F503FA05F424FA05F65E4012BF8C
:1001D0001643B2FA82F502FA05F4C5F120051EBFF6
:1001E00022FA05FC44EA0C04203556EA044C4FEA96
:1001F000144418BF641C4FF000084FF000099042EF
:1002000071EB030C39D3002919BFB1FA81F701FA58
:1002100007F6B0FA80F700FA07F6C7F120071EBF0D
:1002200020FA07FC46EA0C062037B6FBF4FCA7EBE5
:100230000507103F07F01F0BCBF120060CFA0BFB54
:100240002CFA06F644BFB3460026202FA4BF5E4614
:100250004FF0000B5BEA060C08BF4FF0010B19EBE7
:100260000B09ABFB027C48EB0608C01B06FB02CC6B
:100270000BFB03CC71EB0C01C1E70B460246414678
:100280004846BDE8F08B13B54FF000004FF0000179
:10029000AFF30080BDE81C40704700000FB41CB5F0
:1002A0000C0007AA009001D02044401E074B7B445D
:1002B00069460190069800F082FE002C03D0694642
:1002C000002000F008F81CBC5DF814FB2F000000B3
:1002D0007047704770470A6802F8010B0A60704760
:1002E000D1E900239A4202D2531C0B601070704770
:1002F0000446AFF300802046FFF734FFFFFFFFFF07
:1003000000214FF04022D160FE490968FE4AB1FB4E
:10031000F2F14143491E4FF04022916104215161A5
:10032000022151600121516000BF4FF04021496816
:1003300011F0010FF9D1704710B5F448006840F092
:100340000200F34AC2F8C4004FF000004FF0402210
:10035000D060EC480068EC4AB0FBF2F041F2883221
:1003600000FB02F14FF0402081614FF003004FF09D
:10037000402250614FF00100024602FA00F24FEABB
:1003800050134FF0E02404EB8303C3F8002100BFB7
:1003900010BD10B501234FF040242360DD4B1B68D6
:1003A000002B2BDDDC4B1B6803F00303DB4CE35C11
:1003B0001B01DB4C6361D84B1B685B1CD64C236074
:1003C000D44B1B680C2B01DD0C2301E0D14B1B68C7
:1003D0001A46531C41F2883494FBF3F0C82800D22B
:1003E000C820C84B1B68C84CB3FBF4F303FB00F1F7
:1003F00001B901214FF04023996102E0F023C84C7C
:10040000E36110BD08B50021009102E00099491C8C
:10041000009100998142F9D308BDF0B50024002570
:100420004FF0FC50BE49C8610320C865B948006858
:10043000142801DD142001E0B6480068B9490860BD
:100440000968481C00EBD0714910B64B196018467A
:10045000006800282BDD18460068062801DD06200C
:1004600001E0B04800680746002206E002F11700EC
:10047000012101FA00F00443521CBA42F6DB0CB130
:10048000A7488461A7480068062810DDA5480068D1
:10049000861F022E00DD0226002203E0012090408C
:1004A0000543521CB242F9DB0DB19D4885659E485B
:1004B000FFF7A8FFF0BD4FF4F0209949C8614FF451
:1004C0000020C8614000C861704700B5FFF7F3FF26
:1004D00096480068924948614FF40020C861400086
:1004E00088611920FFF78EFF4FF480108C49C86196
:1004F00000BD00B58E48007800F0F0008B49086020
:1005000008460068C0020860FFF7DFFF88480078EF
:1005100000F00F008549086008460068C0030860C5
:10052000FFF7D3FF4FF47A70FFF76CFF00BD00B503
:1005300001207F490860FFF7DCFF42F21070FFF7EF
:1005400061FF00BD00B5FFF7B6FF78480068744949
:1005500048614FF400208861400088611920FFF74E
:1005600051FF4FF480106E49C86100BD00B570485E
:10057000007800F0F0006D49086008460068C0028D
:100580000860FFF7DFFF6A48007800F00F00674956
:10059000086008460068C0030860FFF7D3FF4FF407
:1005A0007A70FFF72FFF00BD00B5FFF784FF4FF40F
:1005B0004860FFF727FF4FF4C0105C490860FFF761
:1005C00084FF47F23050FFF71DFF4FF4C01057492A
:1005D0000860FFF77AFF47F23050FFF713FF4FF440
:1005E000C01052490860FFF770FF47F23050FFF724
:1005F00009FF4FF480104D490860FFF766FF47F28E
:100600003050FFF7FFFE282049490860FFF771FFCF
:1006100047F23050FFF7F6FE0C2045490860FFF71F
:1006200068FF4FF44870FFF7EDFE06204049086070
:10063000FFF75FFF4FF44870FFF7E4FE01203C49ED
:100640000860FFF756FF42F21070FFF7DBFE8020D4
:1006500037490860FFF74DFF4FF44870FFF7D2FEAF
:1006600000BD70B505460024284600F0CFFBC6B299
:1006700000BF05E0285D2E490860FFF777FF641C86
:10068000B44201D2102CF5D305E02020284908609F
:10069000FFF76CFF641C102CF7D370BD8CB01422D4
:1006A00024A107A800F0D1FB142102A800F0FFFB51
:1006B000002600274FF001084FF0010900F0EAF989
:1006C00000F014F92048406820F47F101E4948606B
:1006D0000846006920F00F0008610846406C20F4CD
:1006E0007F1048640846006D20F00F0008650C4834
:1006F000006840F0FC500A4908600846006C40F071
:10070000030023E02000001040420F00C4C00F404F
:1007100000C00F4000000010140000105410000032
:1007200000C0092010000010A08601001C0000106D
:100730001800001050454F504C4520434F554E5423
:10074000455220202000000000C0024008640846F6
:10075000006840F0F00008600846006840F4FC10B3
:1007600008600846006C20F4405008645048006D52
:1007700020F070604E4908650846006D40F0A060AA
:1007800008654FF0FC504B49C8610320C865F02054
:10079000C8614948FFF736FEFFF7CEFDFFF704FFBB
:1007A0004548FFF72FFEFFF7C2FE8020434908604F
:1007B000FFF79FFE4FF44870FFF724FE07A8FFF7EE
:1007C00050FF01204FF04021486070E03948406DF3
:1007D000C0F300343748406DC0F34035ACB9B8F1D0
:1007E000000F12D08FB93648006814280DDA35484A
:1007F0000068401C3349086031480068401C30499B
:10080000086001263048FFF7FDFDADB9B9F1000FD2
:1008100012D08EB92A48006800280DDD2B480068E8
:10082000401C2A49086026480068401E2449086088
:1008300001272548FFF7E6FD1CB115B1002007464A
:1008400006461F48006822490968884209D0FFF718
:10085000E4FD1B4800681E4908604CF25030FFF769
:10086000D1FDA046A946802014490860FFF741FE4B
:100870004FF44870FFF7C6FD07A8FFF7F2FEC0204F
:100880000E490860FFF735FE4FF44870FFF7BAFDD8
:10089000142000900A480FA21121036802A8FFF754
:1008A000FDFC02A8FFF7DDFE0F48FFF7ABFD8DE76B
:1008B00000C0024000C00920A086010018000010FE
:1008C0000000001008000010E09304000C0000106D
:1008D000040000104361703A202532642F252D3228
:1008E000642020202020000020A107002DE9F047EF
:1008F000B1480068C0F3016003287CD1AF480068AC
:1009000010F0030006D0012833D002285FD003285E
:100910002ED100E000BFA8480068C0F3074000F1F6
:1009200001044FF00201A648D0F88800C0F30E0081
:1009300000F10100A1FB0001A24B4FF0000CA0FB55
:10094000037901FB039100FB0C11224663463846F4
:10095000FFF72CFC05469C480068C0B200F101047A
:1009600022464FF000032846FFF720FC9749086015
:100970005DE091480068C0F3074000F101044FF0CA
:1009800002018F48D0F88800C0F30E0000F101008A
:10099000A1FB00108E4A4FF0000CA1FB027900FB76
:1009A000029001FB0C01224663463846FFF7FEFB2E
:1009B000054685480068C0B200F1010422464FF0A8
:1009C00000032846FFF7F2FB804908602FE07A48D1
:1009D0000068C0F3074000F101044FF002017848BD
:1009E000D0F88800C0F30E0000F10100A1FB001256
:1009F0004FF4004000E01BE04FF00003A1FB007942
:100A000002FB009001FB030122463846FFF7CEFBB4
:100A100005466D480068C0B200F1010422464FF05F
:100A200000032846FFF7C2FB6849086000BF2FE0BB
:100A30006248006810F0030006D0012810D0022898
:100A400019D0032823D100E000BF5F480068C0B27E
:100A500000F101005B49B1FBF0F05C49086016E071
:100A600059480068C0B200F101005949B1FBF0F0EB
:100A7000564908600BE054480068C0B200F101001C
:100A80004FF40041B1FBF0F05049086000BF00BFD7
:100A9000BDE8F08720204F4908604948D0F8A00100
:100AA00010F0200F05D000BF4A48006810F0400F3A
:100AB000FAD00320444908604FF000004049C1F8D3
:100AC000A801454908604FF001003C4908604348CF
:100AD000434908604FF0AA00424908604FF05500B2
:100AE00008604FF00100404908604FF0AA003D49FE
:100AF00008604FF055003249C1F88C0000BF2E4805
:100B0000006810F0806FFAD00320374908604FF07A
:100B1000AA002B49C1F88C004FF0550031490860FC
:100B200000BF2548006800F04070B0F1407FF8D168
:100B300023202E4908604FF0AA002149C1F8AC00DB
:100B40004FF055002A4908604FF00100294908601C
:100B50004FF0AA00264908604FF055001849C1F827
:100B6000AC0000BF2448006810F4806FFAD0032066
:100B7000204908604FF0AA001149C1F8AC004FF0BD
:100B800055001B49086000BF1B48006800F4407016
:100B9000B0F5407FF8D11948194908604FF00000BE
:100BA0000749C1F8C8010846006820F4704040F4C5
:100BB000804008607047000088C00F400CC10F40A3
:100BC00000C00F4000093D0004C10F40200000108C
:100BD000001BB700A0C10F40ACC10F40630005006F
:100BE00084C00F408CC00F4080C00F40A4C00F4095
:100BF000ACC00F40A0C00F40A8C00F40DE87280443
:100C0000C4C00F4070B5044685690068C10601D5AF
:100C1000302600E02026C00708D070BDD4E90121AD
:100C200030469047206A00F1010020626D1EF5D524
:100C300070BD70B5044685690078C00708D170BDE5
:100C4000D4E9012120209047206A00F101002062B0
:100C50006D1EF5D570BD00002DE9F041064600245B
:100C600010687529314616A511D0AFF30080002811
:100C700003DAC0F1000013A507E031688A0701D547
:100C800011A502E0490704D510A5012401E0AFF346
:100C9000008000210A2306F1240707E0B0FBF3F2ED
:100CA00003FB1200303078541046491C0028F5D15F
:100CB00023462A463046BDE8F04100F01FB9000047
:100CC000000000002D0000002B00000020000000AC
:100CD0002DE9F05F894604464FF0000ADFF828B19D
:100CE000FB44C0F820A02046E168884700287CD05B
:100CF000252806D0D4E901219047206A401C2062B3
:100D0000F1E700255F462046E1688847202806462F
:100D100008DB312E06D207EB060010F8200C08B1D4
:100D20000543F0E7A80701D525F00405C4F81CA089
:100D30000027C4F818A02A2E09D0304600F083F905
:100D400038B304EB8708303EC8F8186019E059F84A
:100D5000041B204604EB87029161E1688847012F5C
:100D6000064618D1E069002820DA25F020051DE0AC
:100D7000D8F8180000EB800006EB40003038C8F8C7
:100D800018002046E1688847064600F05CF9002814
:100D9000EED1012F0AD02E2E08D12046E1688847D7
:100DA0007F1C0646022F45F02005C4DBA069002801
:100DB00003DA404245F00105A061E80701D025F0C3
:100DC000100596B1A6F14100192802D8203645F445
:100DD00000654A463146204625604D46FFF7B0F98A
:100DE00060B1012807D0ED1D00E009E025F0070003
:100DF00000F1080977E705F1040974E7304679E75F
:100E0000206ABDE8F09F00007403000010B5431C89
:100E100002E010F8011B71B18107FAD14FF00132E5
:100E200002C88C1A8C4314EAC211F9D0C01A0A06FF
:100E300003D0C01E10BDC01A10BD0A0401D0801E10
:100E400010BD0902FCD0401E10BD10B5203AC0F004
:100E50000B80B1E81850203AA0E81850B1E81850BB
:100E6000A0E81850BFF4F5AF5FEA027C24BFB1E8F8
:100E70001850A0E8185044BF18C918C0BDE8104069
:100E80005FEA827C24BF51F8043B40F8043B08BF72
:100E90007047D20728BF31F8023B48BF11F8012B39
:100EA00028BF20F8023B48BF00F8012B70474FF0E5
:100EB000000200B5134694469646203922BFA0E8AA
:100EC0000C50A0E80C50B1F12001BFF4F7AF0907B6
:100ED00028BFA0E80C5048BF0CC05DF804EB8900A7
:100EE00028BF40F8042B08BF704748BF20F8022BEA
:100EF00011F0804F18BF00F8012B70472DE9F04723
:100F00000D4699469246044600F124080168880679
:100F100004D5E06921F01001216000E00120A84221
:100F200002DDA0EB050700E00027A16907EB050241
:100F300002EB0900A1EB0000A0612078C00602D4FA
:100F40002046FFF75FFE002608E0D4E901211AF8E9
:100F500006009047206A401C761C20624E45F4DB58
:100F60002078C0060AD52046FFF74CFE06E0D4E9FB
:100F7000012130209047206A401C2062381EA7F1D2
:100F80000107F4DC07E0D4E9012118F805009047D7
:100F9000206A401C2062281EA5F10105F3DC2046D2
:100FA000FFF747FE2078000602D50220BDE8F08753
:100FB0000120FBE701694A1C02610878704700B50F
:100FC0008FB0CDE901310021059105497944CDE982
:100FD000031011466846FFF77BFE0FB000BD00000E
:100FE000E5FFFFFF754600F023F8AE4605006946B1
:100FF000534620F00700854618B020B5FFF7C6F825
:10100000BDE820404FF000064FF000074FF0000809
:101010004FF0000B21F00701AC46ACE8C009ACE88A
:10102000C009ACE8C009ACE8C0098D4670470000B3
:10103000004870472400001001491820ABBEFEE7AD
:1010400026000200704730380A2801D2012070477C
:101050000020704703090C0604000008000000008F
:101060000000000200010000100000008C100000D1
:10107000000000102400000008010000B010000073
:1010800024000010640200002401000000000000A1
:101090000000000000000000000000000000000050
:1010A00000000000000000000000000000E1F50565
:040000050000017185
:00000001FF
