:020000040000FA
:100000009002001071010000790100007B010000E6
:100010007D0100007F010000810100000000000060
:10002000000000000000000000000000830100004C
:100030008501000000000000870100008901000028
:100040008B0100008B0100008B0100008B01000080
:100050008B0100008B0100008B0100008B01000070
:100060008B0100008B0100008B0100008B01000060
:100070008B0100008B0100008B0100008B01000050
:100080008B0100008B0100008B0100008B01000040
:100090008B0100008B0100008B0100008B01000030
:1000A0008B0100008B0100008B0100008B01000020
:1000B0008B0100008B0100008B0100008B01000010
:1000C0008B0100008B0100008B01000000F002F8A2
:1000D00000F03FF80AA090E8000C82448344AAF1A3
:1000E0000107DA4501D100F034F8AFF2090EBAE8A1
:1000F0000F0013F0010F18BFFB1A43F0010318475C
:10010000D00B0000F00B0000103A24BF78C878C173
:10011000FAD8520724BF30C830C144BF04680C600D
:10012000704700000023002400250026103A28BF55
:1001300078C1FBD8520728BF30C148BF0B60704759
:10014000642900F07D84002070471FB51FBD10B5E5
:1001500010BD00F06BFD1146FFF7F7FF00F0F2F95C
:1001600000F089FD03B4FFF7F2FF03BC00F08EFD41
:100170000948804709480047FEE7FEE7FEE7FEE73B
:10018000FEE7FEE7FEE7FEE7FEE7FEE70448054977
:10019000034A054B7047000069080000CD000000CD
:1001A00090000010900200109000001053EA020C22
:1001B00000F069802DE9F04B4FF00006002B1FBFC7
:1001C000B3FA83F503FA05F424FA05F65E4012BF8C
:1001D0001643B2FA82F502FA05F4C5F120051EBFF6
:1001E00022FA05FC44EA0C04203556EA044C4FEA96
:1001F000144418BF641C4FF000084FF000099042EF
:1002000071EB030C39D3002919BFB1FA81F701FA58
:1002100007F6B0FA80F700FA07F6C7F120071EBF0D
:1002200020FA07FC46EA0C062037B6FBF4FCA7EBE5
:100230000507103F07F01F0BCBF120060CFA0BFB54
:100240002CFA06F644BFB3460026202FA4BF5E4614
:100250004FF0000B5BEA060C08BF4FF0010B19EBE7
:100260000B09ABFB027C48EB0608C01B06FB02CC6B
:100270000BFB03CC71EB0C01C1E70B460246414678
:100280004846BDE8F08B13B54FF000004FF0000179
:10029000AFF30080BDE81C40704700000FB41CB5F0
:1002A000074B06AA7B4469460090059800F013F8B6
:1002B0000020694600F0B5FC1CBC5DF814FB000092
:1002C0007B090000704770477047000001694A1CB5
:1002D00002610878704700B58FB0CDE90131002187
:1002E000059105497944CDE903101146684600F0AF
:1002F00073FB0FB000BD0000E5FFFFFFFFFFFFFF36
:10030000002100E0491C8142FCD370474FF4F020EB
:10031000D649C8614FF40020C8614000C8617047E9
:1003200000B5FFF7F3FFD2480068D04948614FF4A9
:100330000020C861400088611920FFF7E1FF4FF4F9
:100340008010CA49C86100BD00B5CA48007800F0F5
:10035000F000C749086008460068C0020860FFF75F
:10036000DFFFC448007800F00F00C149086008466C
:100370000068C0030860FFF7D3FF4FF47A70FFF7FF
:10038000BFFF00BD00B5FFF7C1FFB9480068B7491E
:1003900048614FF400208861400088611920FFF710
:1003A000AFFF4FF48010B149C86100BD00B5B1483E
:1003B000007800F0F000AE49086008460068C0020E
:1003C0000860FFF7DFFFAB48007800F00F00A84996
:1003D000086008460068C0030860FFF7D3FF4FF4C9
:1003E0007A70FFF78DFF00BD10B5034600240DE0C5
:1003F0002046641C185C9F490860FFF7D7FF102C4B
:1004000004D1C0209B490860FFF79EFF185D0028BB
:10041000EED110BD00B503469448406900F060403D
:100420009549964A126831F8221040EAC1508F4926
:1004300048615BB991490968481CC11700EB91718B
:100440008910A0EB81018D4A11600AE08B48006899
:10045000401E01D5032002E088480068401E8749FD
:1004600008608748FFF74CFF00BD8649086800EB2D
:10047000D0714910844A11601046017801208840EB
:10048000401EC00379494861704700B5FFF73EFF41
:100490004FF44860FFF734FF4FF4C0107449086010
:1004A000FFF73EFF47F23050FFF72AFF4FF4C0102E
:1004B0006F490860FFF734FF47F23050FFF720FF25
:1004C0004FF4C0106A490860FFF72AFF47F2305026
:1004D000FFF716FF4FF4801065490860FFF720FF13
:1004E00047F23050FFF70CFF282062490860FFF701
:1004F0002BFF47F23050FFF703FF0C205D490860E7
:10050000FFF722FF4FF44870FFF7FAFE0620594923
:100510000860FFF719FF4FF44870FFF7F1FE012064
:1005200054490860FFF710FF42F21070FFF7E8FE31
:10053000802050490860FFF707FF4FF44870FFF72D
:10054000DFFE00BD9CB0342250490FA800F0B4FA81
:10055000342102A800F0E2FA0026002700F084F916
:1005600000F0AEF84148006840F4FF003F490860E1
:100570004FF4FC1008600846006840F0FC5008602A
:100580004FF4FF00C861FFF780FF4148FFF7B8FE56
:10059000802038490860FFF7D7FE4FF44870FFF716
:1005A000AFFE0FA8FFF720FF54E03048406DC0F3C6
:1005B00000342E48406DC0F34035A4B99FB931488E
:1005C000006814280FDA33480068401C314908607D
:1005D0002C480068401C2B4908600126FFF745FFA6
:1005E0000020FFF717FFA5B99EB92648006800282C
:1005F0000FDD29480068401C274908602148006831
:10060000401E204908600127FFF72FFF0120FFF758
:1006100001FF1CB115B1002007460646C020154950
:100620000860FFF791FE4FF44870FFF769FE142051
:1006300014490968CDE9001017480368154817A147
:10064000026802A8FFF72AFE02A8FFF7CDFE0C48B9
:10065000FFF756FEA9E700B5012006490860FFF73D
:1006600073FE42F21070FFF74BFE00BD00C0092080
:1006700028000010240000101000001020000010BE
:1006800020A10700000000100C0000109C0C0000CE
:10069000A08601000400001008000010496E3A20F6
:1006A00025642C204F75743A2025642C20436170FA
:1006B00061636974793A2025642F25640000000085
:1006C0002DE9F047B1480068C0F3016003287CD1F0
:1006D000AF48006810F0030006D0012833D002288C
:1006E0005FD003282ED100E000BFA8480068C0F307
:1006F000074000F101044FF00201A648D0F888003D
:10070000C0F30E0000F10100A1FB0001A24B4FF06D
:10071000000CA0FB037901FB039100FB0C112246A6
:1007200063463846FFF742FD05469C480068C0B264
:1007300000F1010422464FF000032846FFF736FD82
:10074000974908605DE091480068C0F3074000F1F8
:1007500001044FF002018F48D0F88800C0F30E006A
:1007600000F10100A1FB00108E4A4FF0000CA1FB2C
:10077000027900FB029001FB0C01224663463846D9
:10078000FFF714FD054685480068C0B200F101047A
:1007900022464FF000032846FFF708FD8049086015
:1007A0002FE07A480068C0F3074000F101044FF0E1
:1007B00002017848D0F88800C0F30E0000F1010073
:1007C000A1FB00124FF4004000E01BE04FF00003DB
:1007D000A1FB007902FB009001FB03012246384691
:1007E000FFF7E4FC05466D480068C0B200F1010463
:1007F00022464FF000032846FFF7D8FC68490860FE
:1008000000BF2FE06248006810F0030006D0012806
:1008100010D0022819D0032823D100E000BF5F4880
:100820000068C0B200F101005B49B1FBF0F05C4927
:10083000086016E059480068C0B200F1010059494B
:10084000B1FBF0F0564908600BE054480068C0B2B4
:1008500000F101004FF40041B1FBF0F05049086095
:1008600000BF00BFBDE8F08720204F49086049481D
:10087000D0F8A00110F0200F05D000BF4A48006852
:1008800010F0400FFAD00320444908604FF00000F8
:100890004049C1F8A801454908604FF001003C49B2
:1008A00008604348434908604FF0AA004249086085
:1008B0004FF0550008604FF00100404908604FF0CC
:1008C000AA003D4908604FF055003249C1F88C003C
:1008D00000BF2E48006810F0806FFAD0032037491F
:1008E00008604FF0AA002B49C1F88C004FF055006A
:1008F0003149086000BF2548006800F04070B0F141
:10090000407FF8D123202E4908604FF0AA002149EA
:10091000C1F8AC004FF055002A4908604FF00100C3
:10092000294908604FF0AA00264908604FF0550099
:100930001849C1F8AC0000BF2448006810F4806F6B
:10094000FAD00320204908604FF0AA001149C1F8ED
:10095000AC004FF055001B49086000BF1B48006801
:1009600000F44070B0F5407FF8D11948194908608B
:100970004FF000000749C1F8C8010846006820F49C
:10098000704040F4804008607047000088C00F400D
:100990000CC10F4000C00F4000093D0004C10F40D2
:1009A0002C000010001BB700A0C10F40ACC10F40CD
:1009B0006300050084C00F408CC00F4080C00F4012
:1009C000A4C00F40ACC00F40A0C00F40A8C00F4053
:1009D000DE872804C4C00F402DE9F0410E460446CE
:1009E000002020622046E168884730B3252805D0E2
:1009F000D4E901219047206A401CF2E7E1682046D3
:100A000000278847050018D0A5F14100192802D811
:100A100020354FF400673246294620462760FFF70D
:100A20008FFB40B1012804D0F61D26F007060836DA
:100A3000D8E7361DD6E72846DAE7206ABDE8F08118
:100A40002DE9F0410646002410687529314616A5A7
:100A500011D0AFF30080002803DAC0F1000013A525
:100A600007E031688A0701D511A502E0490704D5DE
:100A700010A5012401E0AFF3008000210A2306F154
:100A8000240707E0B0FBF3F203FB12003030785488
:100A90001046491C0028F5D123462A463046BDE8B9
:100AA000F04100F062B80000000000002D000000DE
:100AB0002B0000002000000010B5203AC0F00B8091
:100AC000B1E81850203AA0E81850B1E81850A0E852
:100AD0001850BFF4F5AF5FEA027C24BFB1E81850AC
:100AE000A0E8185044BF18C918C0BDE810405FEA1C
:100AF000827C24BF51F8043B40F8043B08BF704798
:100B0000D20728BF31F8023B48BF11F8012B28BF9C
:100B100020F8023B48BF00F8012B70474FF000025D
:100B200000B5134694469646203922BFA0E80C50E3
:100B3000A0E80C50B1F12001BFF4F7AF090728BFBE
:100B4000A0E80C5048BF0CC05DF804EB890028BF3A
:100B500040F8042B08BF704748BF20F8022B11F063
:100B6000804F18BF00F8012B70472DE9F0470D4664
:100B700099469246044600F124080168880604D587
:100B8000E06921F01001216000E00120A84202DDAF
:100B9000A0EB050700E00027A16907EB050202EBC7
:100BA0000900A1EB0000A0612078C00602D4204615
:100BB000AFF30080002608E0D4E901211AF806000E
:100BC0009047206A401C761C20624E45F4DB20785A
:100BD000C0060AD52046AFF3008006E0D4E9012123
:100BE00030209047206A401C2062381EA7F1010780
:100BF000F4DC07E0D4E9012118F805009047206AE9
:100C0000401C2062281EA5F10105F3DC2046AFF34D
:100C100000802078000602D50220BDE8F087012080
:100C2000FBE70A6802F8010B0A607047754600F09E
:100C300029F8AE4605006946534620F00700854670
:100C400018B020B5FFF7A2FABDE820404FF000062B
:100C50004FF000074FF000084FF0000B21F00701A4
:100C6000AC46ACE8C009ACE8C009ACE8C009ACE8E7
:100C7000C0098D4670470446AFF300802046FFF759
:100C800071FA000000487047300000100149182038
:100C9000ABBEFEE7260002007047000050454F50F3
:100CA0004C4520434F554E54455200000000000073
:100CB0000000000000000000000000000000000034
:100CC0000000000000000000000000000000000024
:100CD000F00C0000000000103000000008010000CF
:100CE000200D000030000010600200002401000010
:100CF00000000000000000000000000000000000F4
:100D00001F0000003F0000002F000000170000003F
:100D100000000000000000000000000000E1F505F8
:040000050000017185
:00000001FF
